:020000040800F2
:1000000000000220BD1B00088D1B00088F1B00088C
:10001000911B0008931B0008951B000800000000BE
:10002000000000000000000000000000971B000816
:10003000991B0008000000009B1B00089D1B000886
:100040000D1C00080D1C00080D1C00080D1C0008EC
:100050000D1C00080D1C00080D1C00080D1C0008DC
:100060000D1C00080D1C00080D1C00080D1C0008CC
:100070000D1C00080D1C00080D1C00080D1C0008BC
:100080000D1C00080D1C00080D1C000800000000DD
:100090000000000000000000000000000D1C00082F
:1000A0000D1C00080D1C00080D1C00080D1C00088C
:1000B0000D1C00080D1C00080D1C00080D1C00087C
:1000C0000D1C00080D1C00080D1C00080D1C00086C
:1000D0000D1C00080D1C00080D1C0008000000008D
:1000E0000D1C00080D1C00080D1C0008000000007D
:1000F0000000000000000000000000000D1C0008CF
:10010000000000000D1C00080D1C00080D1C00085C
:1001100000000000000000000000000000000000DF
:100120000D1C00080D1C00080D1C00080D1C00080B
:100130000D1C00080000000000000000000000008E
:100140000000000000000000000000000D1C00087E
:100150000D1C00080D1C00080D1C00080D1C0008DB
:100160000D1C00080D1C000800000000000000002D
:10017000000000000000000000000000000000007F
:10018000000000000D1C000800000000000000003E
:080190000D1C00080D1C000805
:1001980010B5054C237833B9044B13B10448AFF3B9
:1001A80000800123237010BD0C0000200000000017
:1001B800681C000808B5034B1BB103490348AFF39B
:1001C800008008BD0000000010000020681C000826
:1001D80053B94AB9002908BF00281CBF4FF0FF31A6
:1001E8004FF0FF3000F07AB9ADF1080C6DE904CE9C
:1001F80000F006F8DDF804E0DDE9022304B07047FA
:100208002DE9F0478C460D460446089E002B51D137
:100218008A4217466DD9B2FA82FEBEF1000F0BD0A2
:10022800CEF1200C01FA0EF520FA0CFC02FA0EF7BA
:100238004CEA050C00FA0EF44FEA174A250CBCFBF1
:10024800FAF81FFA87F90AFB18CC45EA0C4508FBAF
:1002580009F3AB420AD9ED1908F1FF3280F0238186
:10026800AB4240F22081A8F102083D44ED1AA4B245
:10027800B5FBFAF00AFB105544EA054400FB09F9FE
:10028800A14509D9E41900F1FF3380F00A81A1459D
:1002980040F2078102383C44A4EB090440EA0840D4
:1002A8000021002E61D024FA0EF40023346073601C
:1002B800BDE8F0878B4207D9002E54D0002186E88C
:1002C80021000846BDE8F087B3FA83F1002940F021
:1002D8008E80AB4202D3824200F2FA80841A65EB28
:1002E80003050120AC46002E3FD086E81010BDE87B
:1002F800F08712B90127B7FBF2F7B7FA87FEBEF10C
:10030800000F34D1EB1B3A0C1FFA87FC0121B3FB19
:10031800F2F8250C02FB183345EA03450CFB08F3F9
:10032800AB4207D9ED1908F1FF3002D2AB4200F217
:10033800D1808046ED1AA3B2B5FBF2F002FB10554E
:1003480043EA05440CFB00FCA44507D9E41900F175
:10035800FF3302D2A44500F2B8801846A4EB0C047F
:1003680040EA08409DE731463046BDE8F087CEF1C7
:10037800200405FA0EF307FA0EF720FA04F83A0CEF
:1003880025FA04F448EA0308B4FBF2F14FEA1845E9
:1003980002FB11441FFA87FC45EA044501FB0CF3F4
:1003A800AB4200FA0EF409D9ED1901F1FF3080F0E3
:1003B8008A80AB4240F2878002393D44EB1A1FFA2B
:1003C80088F5B3FBF2F002FB103345EA034500FB66
:1003D8000CF3AB4207D9ED1900F1FF386FD2AB42ED
:1003E8006DD902383D44EB1A40EA01418FE7C1F16B
:1003F800200722FA07F88B4005FA01F448EA0303BC
:1004080020FA07FE4FEA134CFD404EEA040EB5FBF6
:10041800FCF94FEA1E440CFB19551FFA83F844EA0D
:10042800054509FB08F4AC4202FA01F200FA01FAA8
:1004380008D9ED1809F1FF3043D2AC4241D9A9F1EE
:1004480002091D442D1B1FFA8EFEB5FBFCF00CFBA8
:1004580010554EEA054400FB08F8A04507D9E418F2
:1004680000F1FF3529D2A04527D902381C4440EABB
:100478000940A4EB0804A0FB02894C45C6464D463A
:1004880015D312D056B1BAEB0E0364EB050404FA87
:1004980007F7CB401F43CC40376074600021BDE8AC
:1004A800F0871846F8E69046E0E6C245EAD2B8EB8F
:1004B800020E69EB03050138E4E72846D7E7404612
:1004C80091E78146BEE7014678E702383C4445E7B4
:1004D800084608E7A8F102083D442BE7704700BF2B
:1004E80038B50E4A0E4B054618784FF47A73B3FBAD
:1004F800F0F31068B0FBF3F000F0A2FA044658B924
:100508000F2D09D8024629464FF0FF3000F064FA53
:10051800044B20461D6038BD012038BD080000206E
:10052800000000200400002008B50B4B1A6842F4B4
:1005380000721A601A6842F480621A601A6842F4FB
:1005480080721A60032000F035FA0020FFF7C8FF18
:1005580001F030FA002008BD003C0240034A044B79
:1005680011681B780B441360704700BF28000020F7
:1005780000000020014B1868704700BF28000020C9
:1005880038B50446002800F09B80056C25B901F0B9
:100598002DFA656484F83C50236CDB0600F18E80EC
:1005A800236C23F4885323F0020343F002032364EB
:1005B800444B5A6822F440325A605A6861680A43C8
:1005C8005A60236821695A6822F480725A605A680E
:1005D80042EA01225A605A68A16822F040725A60C1
:1005E8005A680A435A609A68E16822F400629A607D
:1005F8009A680A439A603449A26A8A4252D0996832
:1006080021F07061996099680A439A609A68E16A72
:1006180022F040529A609A680A439A609A68217E4A
:1006280022F002029A609A6842EA41029A6094F8BB
:100638002020002A3ED05A68616A42F400625A605B
:100648005A6822F460425A605A68013942EA4132D3
:100658005A60DA6AE16922F47002DA62DA6A013908
:1006680042EA0152DA629A6894F8301022F4007271
:100678009A609A6842EA41229A609A68616922F40B
:1006880080629A609A68002042EA81229A606064D7
:10069800236C23F0030343F001032364002384F84D
:1006A8003C3038BD9A6822F070629A609A6822F0ED
:1006B8004052B2E75A6822F40062C9E70120EDE728
:1006C800012038BD002301400100000F82B0002343
:1006D800019390F83C30012B4ED0012380F83C3038
:1006E80003689A68D10705D59A68D20714D4002000
:1006F80002B070479A68214942F001029A60204A84
:100708001268B2FBF1F202EB42020192019A002A4E
:10071800EAD0019A013AF8E7026C22F4E06222F08A
:10072800010242F4807202645A68510541BF026CAA
:1007380022F4405242F480520264026C12F4805255
:100748001CBF426C22F006024264002280F83C2062
:100758006FF022021A600B4A5268D20608D19868D4
:1007680010F04050C3D19A6842F080429A60BFE7C7
:10077800054A9342BBD1F2E70220B9E740420F0095
:1007880008000020002301400020014090F83C3080
:10079800012B17D0012380F83C3003689A6822F0B7
:1007A80001029A609B68DB0707D4036C23F4885323
:1007B80023F0010343F001030364002380F83C3075
:1007C800184670470220704703689A6870B5560546
:1007D80004460D460BD59B68D80508D5236C43F015
:1007E80020032364002384F83C30012070BDFFF708
:1007F800C1FE064623681A6892070CD56FF01202EC
:100808001A60226C42F4007222649A6812F0405F07
:1008180013D0002070BD691CEDD045B9236C43F09E
:1008280004032364002384F83C30032070BDFFF7E1
:10083800A1FE801B8542DDD2F0E7227E002AE8D1A6
:10084800DA6A12F4700F02D09B685B05E1D4236C5E
:1008580023F480732364206C10F48050D9D1236C66
:1008680043F00103236470BD0368D86C704700002F
:10087800F7B50023019390F83C30012B6ED00D683A
:1008880004688A680123092D80F83C30AEB22AD961
:1008980006EB4603E7681E3B4FF0070E0EFA03FE11
:1008A80027EA0E07E760E76802FA03F33B43E360D1
:1008B8004A68062A4FEA820325D81344676B591FF2
:1008C8001F238B4027EA03036363626B06FA01F177
:1008D80011436163324B9C4234D0002380F83C3092
:1008E800184603B0F0BD276905EB45034FF0070E26
:1008F8000EFA03FE27EA0E072761276902FA03F3B7
:100908003B432361D4E70C2A0ED81344216BA3F18F
:1009180023021F23934021EA03032363236B06FA70
:1009280002F21A432263D5E71344E16A413B1F22CE
:100938009A4021EA0202E262E26A06FA03F11143EE
:10094800E162C7E7122D0BD1164B5A6822F4000258
:100958005A605A6842F480025A60BEE70220C0E733
:10096800114B9D4201D0112DB7D10E4B5A6822F47C
:1009780080025A605A6842F400025A600A4B9D424B
:10098800ABD10A4B0A4A1B68B3FBF2F20A23534362
:100998000193019B002BA0D0019B013BF8E700BF0E
:1009A8000020014000230140120000100800002030
:1009B80040420F00074AD36823F4E0631B041B0C72
:1009C80043F0BF63000243F4003300F4E0600343E4
:1009D800D360704700ED00E0174B30B5DC68C4F316
:1009E8000224C4F10703251D042B28BF0423062D68
:1009F8004FF0010505FA03F303F1FF338CBF033C05
:100A080000241940A14005FA04F4013C22400028C2
:100A180042EA01024FEA0212ADBF00F1604000F065
:100A28000F00064B00F56140B5BFD2B2D2B21A54DE
:100A380080F8002330BD00BF00ED00E014ED00E0B9
:100A48000138B0F1807F0AD2064B074A5860F0217E
:100A580082F823100020072298601A60704701204E
:100A6800704700BF10E000E000ED00E02DE9F04F16
:100A780085B00B68DFF88C81604A01934FF001095B
:100A88000023019D09FA03F42540AC4240F0A680FA
:100A98004C6824F0100C0CF1FF36012E4FEA430E7F
:100AA80012D88768032606FA0EF627EA0607CE68E4
:100AB80006FA0EF63E4386604768C4F3001627EA36
:100AC80005079E403E4346600326C76806FA0EF6B1
:100AD800F64307EA060A8F6807FA0EF747EA0A0795
:100AE800BCF1020FC76016D14FEAD30A00EB8A0A9D
:100AF80003F0070BDAF820704FEA8B0B4FF00F0C5E
:100B08000CFA0BFC27EA0C0C0F6907FA0BF747EAFB
:100B18000C07CAF8207007683E4004F0030707FA7C
:100B28000EFE4EEA06060660E60057D54FF0000BAB
:100B3800CDF80CB0D8F84470314E47F48047C8F867
:100B48004470D8F8447007F480470397039F23F054
:100B5800030707F1804707F59C3703F0030CD7F824
:100B680008A04FEA8C0C4FF00F0E0EFA0CFEB042A4
:100B78002AEA0E0E39D006F58066B04237D006F55F
:100B88008066B04235D006F58066B04233D006F5AF
:100B98008066B04214BF0726042606FA0CF646EA19
:100BA8000E06BE601668EF4314F4803F0CBF3E404B
:100BB8002E431660566814F4003F0CBF3E402E4387
:100BC8005660966814F4801F0CBF3E402E43966012
:100BD800D668A40254BF3E402E43D6600133102B82
:100BE8007FF44FAF05B0BDE8F08F5E46D5E701262C
:100BF800D3E70226D1E70326CFE700BF003C014038
:100C080000000240003802400AB1816170470904BF
:100C1800FBE700002DE9F341044608B901203FE055
:100C28000368DD0710D4236898075AD423681A0785
:100C380000F19C8023685B0700F1BA80A069002856
:100C480040F01B8100202BE0A44B9A6802F00C02B4
:100C5800042A07D09A6802F00C02082A0AD15B68B5
:100C6800590207D59D4B1B689A03DCD56368002B96
:100C7800D9D1D3E76368994DB3F5803F13D12B6879
:100C880043F480332B60FFF775FC944D06462B68C0
:100C98009B03C8D4FFF76EFC801B6428F7D9032098
:100CA80002B0BDE8F081B3F5A02F04D12B6843F45E
:100CB80080232B60E3E72A6822F480322A602A68BE
:100CC80022F480222A60002BDDD1FFF753FC064670
:100CD8002B689F03A7D5FFF74DFC801B6428F7D925
:100CE800DDE77E4B9A6812F00C0F07D09A6802F085
:100CF8000C02082A11D15B685E020ED4774B1A6881
:100D0800950702D5E268012A88D11A68216922F07C
:100D1800F80242EAC1021A6088E7E268704BB2B191
:100D280001221A60FFF726FC6C4D06462B689807CF
:100D380007D52B68226923F0F80343EAC2032B6026
:100D480074E7FFF717FC801B0228EFD9A7E71A60A2
:100D5800FFF710FC614D06462B6899077FF566AFD3
:100D6800FFF708FC801B0228F6D998E762695D4BFB
:100D78007AB101221A60FFF7FDFB584D06466B6FEA
:100D88009F073FF557AFFFF7F5FB801B0228F6D901
:100D980085E71A60FFF7EEFB504D06466B6F980724
:100DA8007FF548AFFFF7E6FB801B0228F6D976E708
:100DB8004A4B1A6C12F0805228D101921A6C42F0F8
:100DC80080521A641B6C03F080530193019B012627
:100DD800454D2B68D9051BD5A368404D012B27D15C
:100DE8002B6F43F001032B67FFF7C4FB3B4D07460E
:100DF80041F288382B6F9B0739D5002E3FF41EAF80
:100E0800364A136C23F08053136417E70026DFE794
:100E18002B6843F480732B60FFF7ACFB07462B6805
:100E2800DA05D9D4FFF7A6FBC01B0228F7D936E7A5
:100E3800052B04D12B6F43F004032B67D0E72A6FEF
:100E480022F001022A672A6F22F004022A67002B87
:100E5800CAD1FFF78FFB41F2883807462B6F9807F6
:100E6800CBD5FFF787FBC01B4045F7D917E7FFF73E
:100E780081FBC01B4045BDD911E7184DAB6803F095
:100E88000C03082B47D0194E00230228336035D1B4
:100E9800FFF770FB07462B68990129D4226AE3699A
:100EA8001343626A43EA8213E26A43EA0263A26A6C
:100EB8000A4C5208013A43EA02436B60012333604B
:100EC800FFF758FB054623689A013FF5BBAEFFF7CD
:100ED80051FB401B0228F6D9E1E600BF003802406A
:100EE80000004742800E47420070004060004742C1
:100EF800FFF740FBC01B0228CDD9D0E6FFF73AFB2D
:100F080004462B689B017FF59DAEFFF733FB001B62
:100F18000228F6D9C3E601283FF4C2AE6868E3693F
:100F280000F480029A427FF479AE226A00F03F030F
:100F380093427FF473AE626A47F6C07303409342EC
:100F48007FF46CAEA26A00F4403393427FF466AE3D
:100F5800E36A00F07060C01A18BF0120A0E600BF65
:100F6800134908B58B6803F00C03042B03D0082B36
:100F780003D0104808BD104808BD4A684B68496846
:100F880013F4800314BF0C480A48C1F3881118BF32
:100F9800002302F03F02A1FB0001FFF719F9044BFF
:100FA8005B68C3F3014301335B00B0FBF3F008BD9A
:100FB800003802400024F40040787D012DE9F0411A
:100FC8000D46044610B90120BDE8F081444B1A686B
:100FD80002F00F028A4229D321688F072ED4C8074E
:100FE80041D43F4B1A6802F00F02954267D322683A
:100FF80051076DD4130707D53A4A2169936823F43A
:10100800604343EAC1039360FFF7AAFF354B364AB2
:101018009B68C3F30313D35CD840344B1860344B3C
:101028001868FFF75DFA0020BDE8F081CAB21A70AF
:101038001B6803F00F039942C5D1CDE7294B11F086
:10104800040F1EBF9A6842F4E0529A600E0742BF2E
:101058009A6842F460429A609A68A06822F0F002A6
:1010680002439A60BBE762681E4B012A1DD11B68C8
:1010780013F4003FA7D01B4EB36823F003031343B8
:10108800B360FFF777FA41F288380746B3686268B9
:1010980003F00C03B3EB820FA3D0FFF76BFAC01B6E
:1010A8004045F3D90320BDE8F081911E01291B6852
:1010B80002D813F0007FDDE713F0020FDAE7EAB297
:1010C8001A701B6803F00F039D427FF47CAF8EE714
:1010D8000449E0688B6823F4E05303438B6089E795
:1010E800003C024000380240801C00080800002034
:1010F80004000020044B054A9B68C3F38223D35C99
:10110800034A1068D840704700380240901C000815
:1011180008000020044B054A9B68C3F34233D35CA4
:10112800034A1068D840704700380240901C0008F5
:1011380008000020036A23F001030362036A70B504
:10114800446882690D6822F073022A438D6823F08F
:1011580002032B430A4DA8420BD1CD688E6923F0B8
:1011680008032B434D6924F44074354323F00403EA
:101178002C43446082614A684263036270BD00BFC9
:1011880000000140036A23F480730362036A70B5A8
:101198004468C2690D6822F073022A438D6823F4FB
:1011A800007343EA05230B4DA8420DD1CD688E6923
:1011B80023F4006343EA05234D6924F4405435437E
:1011C80023F4806344EA05144460C2614A68C26338
:1011D800036270BD00000140036A23F48053036278
:1011E800036A30B54468C2690D6822F4E64242EAEF
:1011F80005228D6823F4005343EA0533064DA842BF
:1012080002BF4D6924F4804444EA85144460C261F5
:101218004A680264036230BD00000140244A036842
:1012280090420ED0B0F1804F0BD0A2F57C42904294
:1012380007D002F58062904203D002F580629042A6
:1012480015D14A6823F070031343194A904219D004
:10125800B0F1804F16D0A2F57C42904212D002F530
:10126800806290420ED002F5806290420AD0114A04
:10127800904207D002F58062904203D002F5806266
:10128800904203D1CA6823F4407313434A6923F098
:101298008003134303608B68C3620B688362044B4B
:1012A800984204BF0B69036301234361704700BF81
:1012B800000001400040014010B50446A0B190F87C
:1012C8003D3003F0FF021BB980F83C2000F0BEFB64
:1012D800022384F83D302068211DFFF79FFF01237A
:1012E80084F83D30002010BD012010BD036A23F0B2
:1012F80010030362036A70B5446882690D6822F4BA
:10130800E64242EA05228D6823F0200343EA0513EA
:101318000B4DA8420DD1CD688E6923F0800343EAB6
:1013280005134D6924F44064354323F0400344EA2F
:101338008504446082614A688263036270BD00BFAD
:101348000000014038B590F83C30012B04464FF0BE
:10135800020025D0012384F83C3084F83D000C2A93
:1013680018D8DFE802F0071717171E1717172F17D7
:10137800171740002068FFF7DDFE236809699A699E
:1013880042F008029A619A6922F004029A619A6905
:101398000A439A610123002084F83D3084F83C0018
:1013A80038BD2068FFF7A2FF236809699A6942F4EB
:1013B80000629A619A6922F480629A619A6942EAA3
:1013C8000122E6E72068FFF7DDFE23680969DA698C
:1013D80042F00802DA61DA6922F00402DA61DA69B5
:1013E8000A43DA61D6E72068FFF7F6FE2368096941
:1013F800DA6942F40062DA61DA6922F48062DA6159
:10140800DA6942EA0122ECE7036A01F01F0110B52C
:1014180001248C4023EA04030362036A8A401A43C6
:10142800026210BD10B5044601220068FFF7ECFF08
:101438002368094A934202BF5A6C42F400425A6434
:101448009A6802F00702062A1EBF1A6842F00102D3
:101458001A60002010BD00BF0000014090F83C3029
:10146800012B30B54FF002032DD080F83D300368D2
:101478000D685C6824F0700401222C4380F83C203D
:101488009A685C60114CA34212D0B3F1804F0FD020
:10149800A4F57C44A3420BD004F58064A34207D092
:1014A80004F58064A34203D004F59A34A34204D11E
:1014B800496822F080020A439A60012380F83D308F
:1014C800002380F83C30184630BD00BF00000140C2
:1014D80038B50368C1681A69044622F440520A43C1
:1014E8001A612569A268D968C0692A43656921F427
:1014F80016412A4321F00C0102430A43DA605A6973
:10150800A16922F440720A43B0F5004F5A61254A96
:1015180029D1934203D002F58062934220D1FFF78C
:10152800F9FD6268256892184FF000034FF0190121
:101538005B41A0FB0101FEF74BFE6421B0FBF1F417
:1015480001FB1403DB003233B3FBF1F303F00702B2
:101558005B0002EB041203F4F8731344AB6038BD6C
:10156800FFF7C8FDDDE7934202D00F4A934216D138
:10157800FFF7D0FD6368256819219A00A0FB0101D7
:101588009B0FFEF725FE6422B0FBF2F102FB11036C
:101598001B013233B3FBF2F303EB0113DEE7FFF772
:1015A800A9FDE7E7001001400014014010B504460A
:1015B80040B390F8393003F0FF021BB980F83820A7
:1015C80000F0AAFA2268242384F83930D36823F477
:1015D8000053D3602046FFF77BFF23681A6922F483
:1015E80090421A615A6922F02A025A61DA6842F472
:1015F8000052DA6000202023E06384F8393084F850
:101608003A3010BD012010BD10B594B03022002131
:1016180008A800F01DFB0021142203A800F018FB05
:101628000024164B01941A6C42F080521A641B6C09
:1016380003F080530193019B114B02941A6842F402
:1016480040421A601B680E9403F440430293029BC5
:101658000223089301230B9308A810230C93FFF788
:10166800D9FA0F23214603A80393049405940694FA
:101678000794FFF7A3FC14B010BD00BF0038024068
:10168800007000402DE9F0478CB0FEF74DFFFFF7E2
:10169800BBFF142200210DEB0200002400F0D8FA51
:1016A800A94B00941A6BA948A94D42F004021A6389
:1016B8001A6B02F004020092009A01941A6B42F02D
:1016C80001021A631A6B02F001020192019A029454
:1016D8001A6B42F002021A631B6B03F002032246E4
:1016E80002934FF400510127029BFFF78DFA4FF444
:1016F800005305A995480593069707940894FFF7A2
:10170800B5F99448944A84604FF4E13380E80C00BA
:101718000C234361C46004618461C461FFF746FF20
:101728001022214605A800F093FA8C4B2F6102265F
:1017380085E8180028468A4B2F76AB62EE616F6108
:10174800AC6085F82040EC62EC6085F83040FEF72C
:1017580017FF072305A92846079306970594FFF75F
:1017680087F805A92846059706967E4EFFF780F864
:101778001C22214605A80394049400F069FA7A4BC8
:10178800B4604FF4006A4FF08009304686E888005C
:10179800C6F80CA03461C6F81890FFF78DFD03A9B0
:1017A80030464FF0600803940494FFF757FE224632
:1017B80005A93046CDF81480069407940994FFF7DC
:1017C800C1FD042205A93046FFF7BCFD304600F0F4
:1017D80067F9664E03941C22214605A8049400F07C
:1017E80037FA634BB460304686E88800C6F80CA028
:1017F8003461C6F81890FFF75FFD03A930460394DB
:101808000494FFF72BFE224605A93046CDF8148034
:10181800069407940994FFF795FD042205A930461C
:10182800FFF790FD304600F03BF940F66407284684
:10183800FEF74CFF4FF4FA712846FEF7C5FF002863
:101848005ED12846FFF710F806464FF4FA7128468D
:10185800FEF7BAFF002856D12846FFF705F80446D8
:101868002846FEF793FFBE424FF060094EDD4FF069
:101878000008424605A93B48CDF81490CDF81880D9
:10188800CDF81C80CDF82480A6F50066FFF75AFD38
:1018980041463448FFF7C6FDCDF814900696CDF8BA
:1018A8001C80CDF82480042205A92E48FFF74AFDA4
:1018B80004212C48FFF7B6FDBC424FF0600859DD03
:1018C8000026324605A92948CDF8148006960796C1
:1018D8000996A4F50064FFF735FD31462348FFF764
:1018E800A1FDCDF8148006940796099605A904224F
:1018F8001E48FFF727FD04211C48FFF793FD96E7D4
:101908004FF0FF36A1E74FF0FF34A9E740F29B7391
:101918009E42D7BFC6F500660026069600263246C8
:1019280005A91048C8BF0696CDF8149007960996E1
:10193800FFF708FD31460B48FFF774FDCDF814900A
:10194800069607960996AEE700380240000802405E
:10195800AC000020F40000200010014000200140ED
:101968000100000F6C000020000400402C00002043
:101978000008004040F29B739C42D7BFC4F5006446
:10198800002406940024224605A90948C8BF0694E5
:10199800CDF8148007940994FFF7D4FC2146044835
:1019A800FFF740FDCDF814800694079409949DE74D
:1019B8002C00002082B00C4B002100915A6C42F49C
:1019C80080425A645A6C02F480420092009A019153
:1019D8001A6C42F080521A641B6C03F08053019316
:1019E800019B02B0704700BF0038024010B50446A2
:1019F80088B01422002103A800F02AF92268114BAC
:101A08009A421DD103F58C33002101915A6C0E487E
:101A180042F480725A645A6C02F480720192019AFC
:101A280002911A6B42F001021A631B6B03F0010367
:101A38000293029B03A9032303930493FFF716F869
:101A480008B010BD00200140000002400368114AA0
:101A5800934282B00DD1002300930F4B1A6C42F0D1
:101A680002021A641B6C03F002030093009B02B08D
:101A780070470A4A9342FAD100230193064B1A6C25
:101A880042F004021A641B6C03F004030193019BE7
:101A9800EDE700BF000400400038024000080040A5
:101AA80010B5044688B01422002103A800F0D0F82D
:101AB8002368154A934216D100230193134B1A6BDE
:101AC80042F002021A631B6B03F002030193019BAD
:101AD8003023039303A902230D4804930793FEF7C9
:101AE800C5FF08B010BD0B4A9342FAD100230293F8
:101AF800064B1A6B42F002021A631B6B03F00203D7
:101B08000293029BC023E4E700040040003802402F
:101B1800000402400008004010B5044688B01422B2
:101B2800002103A800F094F82268144B9A4223D1AC
:101B380003F59433002101915A6C114842F01002C8
:101B48005A645A6C02F010020192019A02911A6BBF
:101B580042F001021A631B6B03F001030293029B1C
:101B68004FF4C0630393022304930323069303A94A
:101B780007230793FEF77AFF08B010BD0010014055
:101B8800000002407047FEE7FEE7FEE7FEE7704709
:101B980070477047FEF7E2BC054BD3F8882042F443
:101BA8007002C3F888204FF000629A60704700BF47
:101BB80000ED00E0DFF834D0002103E00C4B5B5867
:101BC800435004310B480C4B42189A42F6D30B4A47
:101BD80002E0002342F8043B094B9A42F9D3FFF78D
:101BE800DBFF00F011F8FFF74DFD70470000022001
:101BF800A81C0008000000200C0000200C00002099
:101C080034010020FEE7000070B50D4E0D4CA41BFA
:101C1800A4100025A54209D10B4E0C4C00F020F869
:101C2800A41BA4100025A54205D170BD56F8253087
:101C380098470135EEE756F8253098470135F2E721
:101C4800A01C0008A01C0008A01C0008A41C000878
:101C580002440346934200D1704703F8011BF9E799
:101C6800F8B500BFF8BC08BC9E467047F8B500BF81
:081C7800F8BC08BC9E46704751
:101C8000000000000000000001020304060708092C
:081C9000000000000102030442
:081C980070E5FF7F0100000070
:041CA000BD0100087A
:041CA400990100089A
:0C1CA80001000000100000000024F40007
:0400000508001BBD17
:00000001FF
